{
  "_format": "hh-sol-artifact-1",
  "contractName": "ContestScoring",
  "sourceName": "contracts/ContestScoring.sol",
  "abi": [
    {
      "inputs": [],
      "stateMutability": "nonpayable",
      "type": "constructor"
    },
    {
      "inputs": [
        {
          "internalType": "address",
          "name": "owner",
          "type": "address"
        }
      ],
      "name": "OwnableInvalidOwner",
      "type": "error"
    },
    {
      "inputs": [
        {
          "internalType": "address",
          "name": "account",
          "type": "address"
        }
      ],
      "name": "OwnableUnauthorizedAccount",
      "type": "error"
    },
    {
      "anonymous": false,
      "inputs": [
        {
          "indexed": true,
          "internalType": "uint256",
          "name": "contestId",
          "type": "uint256"
        },
        {
          "indexed": false,
          "internalType": "string",
          "name": "name",
          "type": "string"
        }
      ],
      "name": "ContestCreated",
      "type": "event"
    },
    {
      "anonymous": false,
      "inputs": [
        {
          "indexed": true,
          "internalType": "uint256",
          "name": "contestId",
          "type": "uint256"
        }
      ],
      "name": "ContestLocked",
      "type": "event"
    },
    {
      "anonymous": false,
      "inputs": [
        {
          "indexed": true,
          "internalType": "uint256",
          "name": "contestId",
          "type": "uint256"
        },
        {
          "indexed": true,
          "internalType": "address",
          "name": "contestant",
          "type": "address"
        }
      ],
      "name": "ContestantAdded",
      "type": "event"
    },
    {
      "anonymous": false,
      "inputs": [
        {
          "indexed": true,
          "internalType": "uint256",
          "name": "contestId",
          "type": "uint256"
        },
        {
          "indexed": true,
          "internalType": "address",
          "name": "judge",
          "type": "address"
        }
      ],
      "name": "JudgeAdded",
      "type": "event"
    },
    {
      "anonymous": false,
      "inputs": [
        {
          "indexed": true,
          "internalType": "address",
          "name": "previousOwner",
          "type": "address"
        },
        {
          "indexed": true,
          "internalType": "address",
          "name": "newOwner",
          "type": "address"
        }
      ],
      "name": "OwnershipTransferred",
      "type": "event"
    },
    {
      "anonymous": false,
      "inputs": [
        {
          "indexed": true,
          "internalType": "uint256",
          "name": "contestId",
          "type": "uint256"
        },
        {
          "indexed": true,
          "internalType": "address",
          "name": "judge",
          "type": "address"
        },
        {
          "indexed": true,
          "internalType": "address",
          "name": "contestant",
          "type": "address"
        },
        {
          "indexed": false,
          "internalType": "uint256",
          "name": "score",
          "type": "uint256"
        }
      ],
      "name": "ScoreSubmitted",
      "type": "event"
    },
    {
      "inputs": [
        {
          "internalType": "uint256",
          "name": "_contestId",
          "type": "uint256"
        },
        {
          "internalType": "address",
          "name": "_contestant",
          "type": "address"
        }
      ],
      "name": "addContestant",
      "outputs": [],
      "stateMutability": "nonpayable",
      "type": "function"
    },
    {
      "inputs": [
        {
          "internalType": "uint256",
          "name": "_contestId",
          "type": "uint256"
        },
        {
          "internalType": "address",
          "name": "_judge",
          "type": "address"
        }
      ],
      "name": "addJudge",
      "outputs": [],
      "stateMutability": "nonpayable",
      "type": "function"
    },
    {
      "inputs": [],
      "name": "contestCount",
      "outputs": [
        {
          "internalType": "uint256",
          "name": "",
          "type": "uint256"
        }
      ],
      "stateMutability": "view",
      "type": "function"
    },
    {
      "inputs": [
        {
          "internalType": "uint256",
          "name": "",
          "type": "uint256"
        },
        {
          "internalType": "uint256",
          "name": "",
          "type": "uint256"
        }
      ],
      "name": "contestantList",
      "outputs": [
        {
          "internalType": "address",
          "name": "",
          "type": "address"
        }
      ],
      "stateMutability": "view",
      "type": "function"
    },
    {
      "inputs": [
        {
          "internalType": "uint256",
          "name": "",
          "type": "uint256"
        },
        {
          "internalType": "address",
          "name": "",
          "type": "address"
        }
      ],
      "name": "contestants",
      "outputs": [
        {
          "internalType": "address",
          "name": "contestantAddress",
          "type": "address"
        },
        {
          "internalType": "uint256",
          "name": "totalScore",
          "type": "uint256"
        },
        {
          "internalType": "uint256",
          "name": "judgeCount",
          "type": "uint256"
        }
      ],
      "stateMutability": "view",
      "type": "function"
    },
    {
      "inputs": [
        {
          "internalType": "uint256",
          "name": "",
          "type": "uint256"
        }
      ],
      "name": "contests",
      "outputs": [
        {
          "internalType": "string",
          "name": "name",
          "type": "string"
        },
        {
          "internalType": "bool",
          "name": "isLocked",
          "type": "bool"
        },
        {
          "internalType": "bool",
          "name": "exists",
          "type": "bool"
        }
      ],
      "stateMutability": "view",
      "type": "function"
    },
    {
      "inputs": [
        {
          "internalType": "string",
          "name": "_name",
          "type": "string"
        }
      ],
      "name": "createContest",
      "outputs": [],
      "stateMutability": "nonpayable",
      "type": "function"
    },
    {
      "inputs": [
        {
          "internalType": "uint256",
          "name": "_contestId",
          "type": "uint256"
        }
      ],
      "name": "getContest",
      "outputs": [
        {
          "internalType": "string",
          "name": "name",
          "type": "string"
        },
        {
          "internalType": "bool",
          "name": "isLocked",
          "type": "bool"
        },
        {
          "internalType": "bool",
          "name": "exists",
          "type": "bool"
        }
      ],
      "stateMutability": "view",
      "type": "function"
    },
    {
      "inputs": [
        {
          "internalType": "uint256",
          "name": "_contestId",
          "type": "uint256"
        }
      ],
      "name": "getLeaderboard",
      "outputs": [
        {
          "internalType": "address[]",
          "name": "",
          "type": "address[]"
        },
        {
          "internalType": "uint256[]",
          "name": "",
          "type": "uint256[]"
        },
        {
          "internalType": "uint256[]",
          "name": "",
          "type": "uint256[]"
        }
      ],
      "stateMutability": "view",
      "type": "function"
    },
    {
      "inputs": [
        {
          "internalType": "uint256",
          "name": "",
          "type": "uint256"
        },
        {
          "internalType": "address",
          "name": "",
          "type": "address"
        },
        {
          "internalType": "address",
          "name": "",
          "type": "address"
        }
      ],
      "name": "hasScored",
      "outputs": [
        {
          "internalType": "bool",
          "name": "",
          "type": "bool"
        }
      ],
      "stateMutability": "view",
      "type": "function"
    },
    {
      "inputs": [
        {
          "internalType": "uint256",
          "name": "",
          "type": "uint256"
        },
        {
          "internalType": "address",
          "name": "",
          "type": "address"
        }
      ],
      "name": "isContestant",
      "outputs": [
        {
          "internalType": "bool",
          "name": "",
          "type": "bool"
        }
      ],
      "stateMutability": "view",
      "type": "function"
    },
    {
      "inputs": [
        {
          "internalType": "uint256",
          "name": "",
          "type": "uint256"
        },
        {
          "internalType": "address",
          "name": "",
          "type": "address"
        }
      ],
      "name": "isJudge",
      "outputs": [
        {
          "internalType": "bool",
          "name": "",
          "type": "bool"
        }
      ],
      "stateMutability": "view",
      "type": "function"
    },
    {
      "inputs": [
        {
          "internalType": "uint256",
          "name": "_contestId",
          "type": "uint256"
        }
      ],
      "name": "lockContest",
      "outputs": [],
      "stateMutability": "nonpayable",
      "type": "function"
    },
    {
      "inputs": [],
      "name": "owner",
      "outputs": [
        {
          "internalType": "address",
          "name": "",
          "type": "address"
        }
      ],
      "stateMutability": "view",
      "type": "function"
    },
    {
      "inputs": [],
      "name": "renounceOwnership",
      "outputs": [],
      "stateMutability": "nonpayable",
      "type": "function"
    },
    {
      "inputs": [
        {
          "internalType": "uint256",
          "name": "_contestId",
          "type": "uint256"
        },
        {
          "internalType": "address",
          "name": "_contestant",
          "type": "address"
        },
        {
          "internalType": "uint256",
          "name": "_score",
          "type": "uint256"
        }
      ],
      "name": "submitScore",
      "outputs": [],
      "stateMutability": "nonpayable",
      "type": "function"
    },
    {
      "inputs": [
        {
          "internalType": "address",
          "name": "newOwner",
          "type": "address"
        }
      ],
      "name": "transferOwnership",
      "outputs": [],
      "stateMutability": "nonpayable",
      "type": "function"
    }
  ],
  "bytecode": "0x60806040523480156200001157600080fd5b5033600073ffffffffffffffffffffffffffffffffffffffff168173ffffffffffffffffffffffffffffffffffffffff1603620000885760006040517f1e4fbdf70000000000000000000000000000000000000000000000000000000081526004016200007f9190620001a9565b60405180910390fd5b6200009981620000a060201b60201c565b50620001c6565b60008060009054906101000a900473ffffffffffffffffffffffffffffffffffffffff169050816000806101000a81548173ffffffffffffffffffffffffffffffffffffffff021916908373ffffffffffffffffffffffffffffffffffffffff1602179055508173ffffffffffffffffffffffffffffffffffffffff168173ffffffffffffffffffffffffffffffffffffffff167f8be0079c531659141344cd1fd0a4f28419497f9722a3daafe3b4186f6b6457e060405160405180910390a35050565b600073ffffffffffffffffffffffffffffffffffffffff82169050919050565b6000620001918262000164565b9050919050565b620001a38162000184565b82525050565b6000602082019050620001c0600083018462000198565b92915050565b61276680620001d66000396000f3fe608060405234801561001057600080fd5b506004361061010b5760003560e01c8063904b9f72116100a2578063a34b46fe11610071578063a34b46fe146102ba578063af744fda146102ec578063da7617cb1461031c578063dfedd7891461034e578063f2fde38b1461036a5761010b565b8063904b9f721461020a57806398ccaf091461023c5780639d7ed73814610258578063a25232f51461028a5761010b565b806366e1006e116100de57806366e1006e146101a8578063715018a6146101c45780638d4fdb3b146101ce5780638da5cb5b146101ec5761010b565b806308bdbc2a1461011057806317451c911461014057806329d8e8571461015c57806360e7f0be14610178575b600080fd5b61012a60048036038101906101259190611935565b610386565b60405161013791906119a3565b60405180910390f35b61015a600480360381019061015591906119be565b6103c2565b005b610176600480360381019061017191906119fe565b610735565b005b610192600480360381019061018d9190611a51565b610c39565b60405161019f9190611aa0565b60405180910390f35b6101c260048036038101906101bd91906119be565b610c87565b005b6101cc610ea5565b005b6101d6610eb9565b6040516101e39190611aca565b60405180910390f35b6101f4610ebf565b6040516102019190611aa0565b60405180910390f35b610224600480360381019061021f9190611ae5565b610ee8565b60405161023393929190611ba2565b60405180910390f35b61025660048036038101906102519190611d15565b610ff4565b005b610272600480360381019061026d9190611ae5565b6110e0565b60405161028193929190611ba2565b60405180910390f35b6102a4600480360381019061029f91906119be565b6111ac565b6040516102b191906119a3565b60405180910390f35b6102d460048036038101906102cf9190611ae5565b6111db565b6040516102e393929190611eda565b60405180910390f35b610306600480360381019061030191906119be565b611501565b60405161031391906119a3565b60405180910390f35b610336600480360381019061033191906119be565b611530565b60405161034593929190611f26565b60405180910390f35b61036860048036038101906103639190611ae5565b611587565b005b610384600480360381019061037f9190611f5d565b6116b4565b005b6007602052826000526040600020602052816000526040600020602052806000526040600020600092509250509054906101000a900460ff1681565b6103ca61173a565b6001600083815260200190815260200160002060010160019054906101000a900460ff1661042d576040517f08c379a000000000000000000000000000000000000000000000000000000000815260040161042490611fd6565b60405180910390fd5b6001600083815260200190815260200160002060010160009054906101000a900460ff1615610491576040517f08c379a000000000000000000000000000000000000000000000000000000000815260040161048890612042565b60405180910390fd5b6004600083815260200190815260200160002060008273ffffffffffffffffffffffffffffffffffffffff1673ffffffffffffffffffffffffffffffffffffffff16815260200190815260200160002060009054906101000a900460ff161561052f576040517f08c379a0000000000000000000000000000000000000000000000000000000008152600401610526906120ae565b60405180910390fd5b60016004600084815260200190815260200160002060008373ffffffffffffffffffffffffffffffffffffffff1673ffffffffffffffffffffffffffffffffffffffff16815260200190815260200160002060006101000a81548160ff02191690831515021790555060405180606001604052808273ffffffffffffffffffffffffffffffffffffffff1681526020016000815260200160008152506005600084815260200190815260200160002060008373ffffffffffffffffffffffffffffffffffffffff1673ffffffffffffffffffffffffffffffffffffffff16815260200190815260200160002060008201518160000160006101000a81548173ffffffffffffffffffffffffffffffffffffffff021916908373ffffffffffffffffffffffffffffffffffffffff160217905550602082015181600101556040820151816002015590505060066000838152602001908152602001600020819080600181540180825580915050600190039060005260206000200160009091909190916101000a81548173ffffffffffffffffffffffffffffffffffffffff021916908373ffffffffffffffffffffffffffffffffffffffff1602179055508073ffffffffffffffffffffffffffffffffffffffff16827f4daad6960da9ff86a8b82f814c02e26439596fe0757b5d039dabcb1be92dbe0660405160405180910390a35050565b6001600084815260200190815260200160002060010160019054906101000a900460ff16610798576040517f08c379a000000000000000000000000000000000000000000000000000000000815260040161078f90611fd6565b60405180910390fd5b6001600084815260200190815260200160002060010160009054906101000a900460ff16156107fc576040517f08c379a00000000000000000000000000000000000000000000000000000000081526004016107f390612042565b60405180910390fd5b6003600084815260200190815260200160002060003373ffffffffffffffffffffffffffffffffffffffff1673ffffffffffffffffffffffffffffffffffffffff16815260200190815260200160002060009054906101000a900460ff16610899576040517f08c379a00000000000000000000000000000000000000000000000000000000081526004016108909061211a565b60405180910390fd5b6004600084815260200190815260200160002060008373ffffffffffffffffffffffffffffffffffffffff1673ffffffffffffffffffffffffffffffffffffffff16815260200190815260200160002060009054906101000a900460ff16610936576040517f08c379a000000000000000000000000000000000000000000000000000000000815260040161092d90612186565b60405180910390fd5b6007600084815260200190815260200160002060003373ffffffffffffffffffffffffffffffffffffffff1673ffffffffffffffffffffffffffffffffffffffff16815260200190815260200160002060008373ffffffffffffffffffffffffffffffffffffffff1673ffffffffffffffffffffffffffffffffffffffff16815260200190815260200160002060009054906101000a900460ff1615610a11576040517f08c379a0000000000000000000000000000000000000000000000000000000008152600401610a08906121f2565b60405180910390fd5b6064811115610a55576040517f08c379a0000000000000000000000000000000000000000000000000000000008152600401610a4c9061225e565b60405180910390fd5b60016007600085815260200190815260200160002060003373ffffffffffffffffffffffffffffffffffffffff1673ffffffffffffffffffffffffffffffffffffffff16815260200190815260200160002060008473ffffffffffffffffffffffffffffffffffffffff1673ffffffffffffffffffffffffffffffffffffffff16815260200190815260200160002060006101000a81548160ff021916908315150217905550806005600085815260200190815260200160002060008473ffffffffffffffffffffffffffffffffffffffff1673ffffffffffffffffffffffffffffffffffffffff1681526020019081526020016000206001016000828254610b5e91906122ad565b925050819055506005600084815260200190815260200160002060008373ffffffffffffffffffffffffffffffffffffffff1673ffffffffffffffffffffffffffffffffffffffff1681526020019081526020016000206002016000815480929190610bc9906122e1565b91905055508173ffffffffffffffffffffffffffffffffffffffff163373ffffffffffffffffffffffffffffffffffffffff16847f378f514d49e4abb7486bee29952af6519de11cb70a74cd68479f52457b0518f784604051610c2c9190611aca565b60405180910390a4505050565b60066020528160005260406000208181548110610c5557600080fd5b906000526020600020016000915091509054906101000a900473ffffffffffffffffffffffffffffffffffffffff1681565b610c8f61173a565b6001600083815260200190815260200160002060010160019054906101000a900460ff16610cf2576040517f08c379a0000000000000000000000000000000000000000000000000000000008152600401610ce990611fd6565b60405180910390fd5b6001600083815260200190815260200160002060010160009054906101000a900460ff1615610d56576040517f08c379a0000000000000000000000000000000000000000000000000000000008152600401610d4d90612042565b60405180910390fd5b6003600083815260200190815260200160002060008273ffffffffffffffffffffffffffffffffffffffff1673ffffffffffffffffffffffffffffffffffffffff16815260200190815260200160002060009054906101000a900460ff1615610df4576040517f08c379a0000000000000000000000000000000000000000000000000000000008152600401610deb90612375565b60405180910390fd5b60016003600084815260200190815260200160002060008373ffffffffffffffffffffffffffffffffffffffff1673ffffffffffffffffffffffffffffffffffffffff16815260200190815260200160002060006101000a81548160ff0219169083151502179055508073ffffffffffffffffffffffffffffffffffffffff16827f61846e41005e48cc4b4f814fd87591c4f1ada6effe9d192bc5d929f0ef9585d160405160405180910390a35050565b610ead61173a565b610eb760006117c1565b565b60025481565b60008060009054906101000a900473ffffffffffffffffffffffffffffffffffffffff16905090565b6060600080600060016000868152602001908152602001600020604051806060016040529081600082018054610f1d906123c4565b80601f0160208091040260200160405190810160405280929190818152602001828054610f49906123c4565b8015610f965780601f10610f6b57610100808354040283529160200191610f96565b820191906000526020600020905b815481529060010190602001808311610f7957829003601f168201915b505050505081526020016001820160009054906101000a900460ff161515151581526020016001820160019054906101000a900460ff1615151515815250509050806000015181602001518260400151935093509350509193909250565b610ffc61173a565b6002600081548092919061100f906122e1565b9190505550604051806060016040528082815260200160001515815260200160011515815250600160006002548152602001908152602001600020600082015181600001908161105f91906125a1565b5060208201518160010160006101000a81548160ff02191690831515021790555060408201518160010160016101000a81548160ff0219169083151502179055509050506002547f2039e722aa93d71d7caed25dec035567733d02451bc4d332f60975e9cc46cad9826040516110d59190612673565b60405180910390a250565b6001602052806000526040600020600091509050806000018054611103906123c4565b80601f016020809104026020016040519081016040528092919081815260200182805461112f906123c4565b801561117c5780601f106111515761010080835404028352916020019161117c565b820191906000526020600020905b81548152906001019060200180831161115f57829003601f168201915b5050505050908060010160009054906101000a900460ff16908060010160019054906101000a900460ff16905083565b60036020528160005260406000206020528060005260406000206000915091509054906101000a900460ff1681565b60608060606001600085815260200190815260200160002060010160019054906101000a900460ff16611243576040517f08c379a000000000000000000000000000000000000000000000000000000000815260040161123a90611fd6565b60405180910390fd5b60006006600086815260200190815260200160002080549050905060008167ffffffffffffffff81111561127a57611279611bea565b5b6040519080825280602002602001820160405280156112a85781602001602082028036833780820191505090505b50905060008267ffffffffffffffff8111156112c7576112c6611bea565b5b6040519080825280602002602001820160405280156112f55781602001602082028036833780820191505090505b50905060008367ffffffffffffffff81111561131457611313611bea565b5b6040519080825280602002602001820160405280156113425781602001602082028036833780820191505090505b50905060005b848110156114ec576000600660008b8152602001908152602001600020828154811061137757611376612695565b5b9060005260206000200160009054906101000a900473ffffffffffffffffffffffffffffffffffffffff169050808583815181106113b8576113b7612695565b5b602002602001019073ffffffffffffffffffffffffffffffffffffffff16908173ffffffffffffffffffffffffffffffffffffffff1681525050600560008b815260200190815260200160002060008273ffffffffffffffffffffffffffffffffffffffff1673ffffffffffffffffffffffffffffffffffffffff1681526020019081526020016000206001015484838151811061145957611458612695565b5b602002602001018181525050600560008b815260200190815260200160002060008273ffffffffffffffffffffffffffffffffffffffff1673ffffffffffffffffffffffffffffffffffffffff168152602001908152602001600020600201548383815181106114cc576114cb612695565b5b6020026020010181815250505080806114e4906122e1565b915050611348565b50828282965096509650505050509193909250565b60046020528160005260406000206020528060005260406000206000915091509054906101000a900460ff1681565b6005602052816000526040600020602052806000526040600020600091509150508060000160009054906101000a900473ffffffffffffffffffffffffffffffffffffffff16908060010154908060020154905083565b61158f61173a565b6001600082815260200190815260200160002060010160019054906101000a900460ff166115f2576040517f08c379a00000000000000000000000000000000000000000000000000000000081526004016115e990611fd6565b60405180910390fd5b6001600082815260200190815260200160002060010160009054906101000a900460ff1615611656576040517f08c379a000000000000000000000000000000000000000000000000000000000815260040161164d90612710565b60405180910390fd5b600180600083815260200190815260200160002060010160006101000a81548160ff021916908315150217905550807fbe083556bce0dac8feb7e6a9ce9ff1acc9df29c6ec47a5638a5fe9da3a7f007f60405160405180910390a250565b6116bc61173a565b600073ffffffffffffffffffffffffffffffffffffffff168173ffffffffffffffffffffffffffffffffffffffff160361172e5760006040517f1e4fbdf70000000000000000000000000000000000000000000000000000000081526004016117259190611aa0565b60405180910390fd5b611737816117c1565b50565b611742611885565b73ffffffffffffffffffffffffffffffffffffffff16611760610ebf565b73ffffffffffffffffffffffffffffffffffffffff16146117bf57611783611885565b6040517f118cdaa70000000000000000000000000000000000000000000000000000000081526004016117b69190611aa0565b60405180910390fd5b565b60008060009054906101000a900473ffffffffffffffffffffffffffffffffffffffff169050816000806101000a81548173ffffffffffffffffffffffffffffffffffffffff021916908373ffffffffffffffffffffffffffffffffffffffff1602179055508173ffffffffffffffffffffffffffffffffffffffff168173ffffffffffffffffffffffffffffffffffffffff167f8be0079c531659141344cd1fd0a4f28419497f9722a3daafe3b4186f6b6457e060405160405180910390a35050565b600033905090565b6000604051905090565b600080fd5b600080fd5b6000819050919050565b6118b4816118a1565b81146118bf57600080fd5b50565b6000813590506118d1816118ab565b92915050565b600073ffffffffffffffffffffffffffffffffffffffff82169050919050565b6000611902826118d7565b9050919050565b611912816118f7565b811461191d57600080fd5b50565b60008135905061192f81611909565b92915050565b60008060006060848603121561194e5761194d611897565b5b600061195c868287016118c2565b935050602061196d86828701611920565b925050604061197e86828701611920565b9150509250925092565b60008115159050919050565b61199d81611988565b82525050565b60006020820190506119b86000830184611994565b92915050565b600080604083850312156119d5576119d4611897565b5b60006119e3858286016118c2565b92505060206119f485828601611920565b9150509250929050565b600080600060608486031215611a1757611a16611897565b5b6000611a25868287016118c2565b9350506020611a3686828701611920565b9250506040611a47868287016118c2565b9150509250925092565b60008060408385031215611a6857611a67611897565b5b6000611a76858286016118c2565b9250506020611a87858286016118c2565b9150509250929050565b611a9a816118f7565b82525050565b6000602082019050611ab56000830184611a91565b92915050565b611ac4816118a1565b82525050565b6000602082019050611adf6000830184611abb565b92915050565b600060208284031215611afb57611afa611897565b5b6000611b09848285016118c2565b91505092915050565b600081519050919050565b600082825260208201905092915050565b60005b83811015611b4c578082015181840152602081019050611b31565b60008484015250505050565b6000601f19601f8301169050919050565b6000611b7482611b12565b611b7e8185611b1d565b9350611b8e818560208601611b2e565b611b9781611b58565b840191505092915050565b60006060820190508181036000830152611bbc8186611b69565b9050611bcb6020830185611994565b611bd86040830184611994565b949350505050565b600080fd5b600080fd5b7f4e487b7100000000000000000000000000000000000000000000000000000000600052604160045260246000fd5b611c2282611b58565b810181811067ffffffffffffffff82111715611c4157611c40611bea565b5b80604052505050565b6000611c5461188d565b9050611c608282611c19565b919050565b600067ffffffffffffffff821115611c8057611c7f611bea565b5b611c8982611b58565b9050602081019050919050565b82818337600083830152505050565b6000611cb8611cb384611c65565b611c4a565b905082815260208101848484011115611cd457611cd3611be5565b5b611cdf848285611c96565b509392505050565b600082601f830112611cfc57611cfb611be0565b5b8135611d0c848260208601611ca5565b91505092915050565b600060208284031215611d2b57611d2a611897565b5b600082013567ffffffffffffffff811115611d4957611d4861189c565b5b611d5584828501611ce7565b91505092915050565b600081519050919050565b600082825260208201905092915050565b6000819050602082019050919050565b611d93816118f7565b82525050565b6000611da58383611d8a565b60208301905092915050565b6000602082019050919050565b6000611dc982611d5e565b611dd38185611d69565b9350611dde83611d7a565b8060005b83811015611e0f578151611df68882611d99565b9750611e0183611db1565b925050600181019050611de2565b5085935050505092915050565b600081519050919050565b600082825260208201905092915050565b6000819050602082019050919050565b611e51816118a1565b82525050565b6000611e638383611e48565b60208301905092915050565b6000602082019050919050565b6000611e8782611e1c565b611e918185611e27565b9350611e9c83611e38565b8060005b83811015611ecd578151611eb48882611e57565b9750611ebf83611e6f565b925050600181019050611ea0565b5085935050505092915050565b60006060820190508181036000830152611ef48186611dbe565b90508181036020830152611f088185611e7c565b90508181036040830152611f1c8184611e7c565b9050949350505050565b6000606082019050611f3b6000830186611a91565b611f486020830185611abb565b611f556040830184611abb565b949350505050565b600060208284031215611f7357611f72611897565b5b6000611f8184828501611920565b91505092915050565b7f436f6e7465737420646f6573206e6f7420657869737400000000000000000000600082015250565b6000611fc0601683611b1d565b9150611fcb82611f8a565b602082019050919050565b60006020820190508181036000830152611fef81611fb3565b9050919050565b7f436f6e74657374206973206c6f636b6564000000000000000000000000000000600082015250565b600061202c601183611b1d565b915061203782611ff6565b602082019050919050565b6000602082019050818103600083015261205b8161201f565b9050919050565b7f416c7265616479206120636f6e74657374616e74000000000000000000000000600082015250565b6000612098601483611b1d565b91506120a382612062565b602082019050919050565b600060208201905081810360008301526120c78161208b565b9050919050565b7f4e6f742061206a7564676520666f72207468697320636f6e7465737400000000600082015250565b6000612104601c83611b1d565b915061210f826120ce565b602082019050919050565b60006020820190508181036000830152612133816120f7565b9050919050565b7f4e6f74206120636f6e74657374616e7400000000000000000000000000000000600082015250565b6000612170601083611b1d565b915061217b8261213a565b602082019050919050565b6000602082019050818103600083015261219f81612163565b9050919050565b7f416c72656164792073636f726564207468697320636f6e74657374616e740000600082015250565b60006121dc601e83611b1d565b91506121e7826121a6565b602082019050919050565b6000602082019050818103600083015261220b816121cf565b9050919050565b7f53636f7265206d757374206265206265747765656e203020616e642031303000600082015250565b6000612248601f83611b1d565b915061225382612212565b602082019050919050565b600060208201905081810360008301526122778161223b565b9050919050565b7f4e487b7100000000000000000000000000000000000000000000000000000000600052601160045260246000fd5b60006122b8826118a1565b91506122c3836118a1565b92508282019050808211156122db576122da61227e565b5b92915050565b60006122ec826118a1565b91507fffffffffffffffffffffffffffffffffffffffffffffffffffffffffffffffff820361231e5761231d61227e565b5b600182019050919050565b7f416c72656164792061206a756467650000000000000000000000000000000000600082015250565b600061235f600f83611b1d565b915061236a82612329565b602082019050919050565b6000602082019050818103600083015261238e81612352565b9050919050565b7f4e487b7100000000000000000000000000000000000000000000000000000000600052602260045260246000fd5b600060028204905060018216806123dc57607f821691505b6020821081036123ef576123ee612395565b5b50919050565b60008190508160005260206000209050919050565b60006020601f8301049050919050565b600082821b905092915050565b6000600883026124577fffffffffffffffffffffffffffffffffffffffffffffffffffffffffffffffff8261241a565b612461868361241a565b95508019841693508086168417925050509392505050565b6000819050919050565b600061249e612499612494846118a1565b612479565b6118a1565b9050919050565b6000819050919050565b6124b883612483565b6124cc6124c4826124a5565b848454612427565b825550505050565b600090565b6124e16124d4565b6124ec8184846124af565b505050565b5b81811015612510576125056000826124d9565b6001810190506124f2565b5050565b601f82111561255557612526816123f5565b61252f8461240a565b8101602085101561253e578190505b61255261254a8561240a565b8301826124f1565b50505b505050565b600082821c905092915050565b60006125786000198460080261255a565b1980831691505092915050565b60006125918383612567565b9150826002028217905092915050565b6125aa82611b12565b67ffffffffffffffff8111156125c3576125c2611bea565b5b6125cd82546123c4565b6125d8828285612514565b600060209050601f83116001811461260b57600084156125f9578287015190505b6126038582612585565b86555061266b565b601f198416612619866123f5565b60005b828110156126415784890151825560018201915060208501945060208101905061261c565b8683101561265e578489015161265a601f891682612567565b8355505b6001600288020188555050505b505050505050565b6000602082019050818103600083015261268d8184611b69565b905092915050565b7f4e487b7100000000000000000000000000000000000000000000000000000000600052603260045260246000fd5b7f436f6e7465737420616c7265616479206c6f636b656400000000000000000000600082015250565b60006126fa601683611b1d565b9150612705826126c4565b602082019050919050565b60006020820190508181036000830152612729816126ed565b905091905056fea26469706673582212205d556bb346a77ced66c4407bda53241b15023ed8d9ab8fd21df0459616b7466764736f6c63430008140033",
  "linkReferences": {},
  "deployedLinkReferences": {}
}